{
  "transactions": [
    {
      "hash": "0xc28fee4085a09b0f917cee003d57ad131365c66c28685662413d65c05617c090",
      "transactionType": "CALL",
      "contractName": null,
      "contractAddress": "0x6e62ab660c7acd232f17b15b54d8e9f738941cb4",
      "function": "mint(address)",
      "arguments": [
        "0x0CCD3D7CCad9F882aFa6b650499E372a221408EB"
      ],
      "transaction": {
        "from": "0x4fbcb0abb61a366d9742009bb986b9c0eba9fef9",
        "to": "0x6e62ab660c7acd232f17b15b54d8e9f738941cb4",
        "gas": "0x19c1e",
        "value": "0x0",
        "input": "0x6a6278420000000000000000000000000ccd3d7ccad9f882afa6b650499e372a221408eb",
        "nonce": "0x19",
        "chainId": "0x14a34"
      },
      "additionalContracts": [],
      "isFixedGasLimit": false
    }
  ],
  "receipts": [
    {
      "status": "0x1",
      "cumulativeGasUsed": "0x709228",
      "logs": [
        {
          "address": "0x6e62ab660c7acd232f17b15b54d8e9f738941cb4",
          "topics": [
            "0xddf252ad1be2c89b69c2b068fc378daa952ba7f163c4a11628f55a4df523b3ef",
            "0x0000000000000000000000000000000000000000000000000000000000000000",
            "0x0000000000000000000000000ccd3d7ccad9f882afa6b650499e372a221408eb",
            "0x000000000000000000000000000000000000000000000000000000000000000e"
          ],
          "data": "0x",
          "blockHash": "0x787c0690f323f60f84ebe7e8041a16e7191953f66b2197679285ffd5aed54e8e",
          "blockNumber": "0x19fe874",
          "blockTimestamp": "0x68532fc8",
          "transactionHash": "0xc28fee4085a09b0f917cee003d57ad131365c66c28685662413d65c05617c090",
          "transactionIndex": "0x15",
          "logIndex": "0xc6",
          "removed": false
        }
      ],
      "logsBloom": "0x00000000000000000000000000000000000000000000000000000000000000000000000000000000000000000000000000000000000001000000000000000000000000000000000800000008000000000000000000000000000008000000000000000000020000000000000000000800000000000000000000000010000000000000000000000000000000000000000008000000000000000000000000000000000000000000000000000000000800000000000000000020000000000000000000000202000002000000000000000000000000000000000000000000000020000000000000000000000000000000000000000000000000000008000000000000",
      "type": "0x2",
      "transactionHash": "0xc28fee4085a09b0f917cee003d57ad131365c66c28685662413d65c05617c090",
      "transactionIndex": "0x15",
      "blockHash": "0x787c0690f323f60f84ebe7e8041a16e7191953f66b2197679285ffd5aed54e8e",
      "blockNumber": "0x19fe874",
      "gasUsed": "0x12a5f",
      "effectiveGasPrice": "0x315b0",
      "from": "0x4fbcb0abb61a366d9742009bb986b9c0eba9fef9",
      "to": "0x6e62ab660c7acd232f17b15b54d8e9f738941cb4",
      "contractAddress": null,
      "l1BaseFeeScalar": "0x44d",
      "l1BlobBaseFee": "0x1",
      "l1BlobBaseFeeScalar": "0xa118b",
      "l1Fee": "0x594b9",
      "l1GasPrice": "0x32ae4",
      "l1GasUsed": "0x640"
    }
  ],
  "libraries": [],
  "pending": [],
  "returns": {},
  "timestamp": 1750282183,
  "chain": 84532,
  "commit": "b707144"
}