{
  "transactions": [
    {
      "hash": "0x82470a618ad15c3baec47229926bdd8a6b35ef626a2e20e82c2fbcb1d8eb35e9",
      "transactionType": "CALL",
      "contractName": null,
      "contractAddress": "0x6e62ab660c7acd232f17b15b54d8e9f738941cb4",
      "function": "mint(address)",
      "arguments": [
        "0x75A6085Bbc25665B6891EA94475E6120897BA90b"
      ],
      "transaction": {
        "from": "0x4fbcb0abb61a366d9742009bb986b9c0eba9fef9",
        "to": "0x6e62ab660c7acd232f17b15b54d8e9f738941cb4",
        "gas": "0x19c1e",
        "value": "0x0",
        "input": "0x6a62784200000000000000000000000075a6085bbc25665b6891ea94475e6120897ba90b",
        "nonce": "0x1c",
        "chainId": "0x14a34"
      },
      "additionalContracts": [],
      "isFixedGasLimit": false
    }
  ],
  "receipts": [
    {
      "status": "0x1",
      "cumulativeGasUsed": "0x32d64e",
      "logs": [
        {
          "address": "0x6e62ab660c7acd232f17b15b54d8e9f738941cb4",
          "topics": [
            "0xddf252ad1be2c89b69c2b068fc378daa952ba7f163c4a11628f55a4df523b3ef",
            "0x0000000000000000000000000000000000000000000000000000000000000000",
            "0x00000000000000000000000075a6085bbc25665b6891ea94475e6120897ba90b",
            "0x000000000000000000000000000000000000000000000000000000000000000f"
          ],
          "data": "0x",
          "blockHash": "0x2a5b580f0d8ae880bbaa35d0ee888c99d1ffa6f3e165f1f50f5d80a1e67988ed",
          "blockNumber": "0x1a485b4",
          "blockTimestamp": "0x685c6a48",
          "transactionHash": "0x82470a618ad15c3baec47229926bdd8a6b35ef626a2e20e82c2fbcb1d8eb35e9",
          "transactionIndex": "0x9",
          "logIndex": "0x99",
          "removed": false
        }
      ],
      "logsBloom": "0x00000000000000000000000000000000000000000000000000000000000000010000000000000000000000000000000000000000000000000000000000000000000000000000000000000008000000000000000000000000000008000002000000000000020000000000000000000800000000000000000000000010000000000000000000000800000000000000000000000000000000000000000000000000000000000000000000000000000800000000000000000000000000000000000000000002000000000000000000000000000000000001000000000000000020000100000200000000000000000000000000000000000000000008000000000000",
      "type": "0x2",
      "transactionHash": "0x82470a618ad15c3baec47229926bdd8a6b35ef626a2e20e82c2fbcb1d8eb35e9",
      "transactionIndex": "0x9",
      "blockHash": "0x2a5b580f0d8ae880bbaa35d0ee888c99d1ffa6f3e165f1f50f5d80a1e67988ed",
      "blockNumber": "0x1a485b4",
      "gasUsed": "0x12a5f",
      "effectiveGasPrice": "0xf808a",
      "from": "0x4fbcb0abb61a366d9742009bb986b9c0eba9fef9",
      "to": "0x6e62ab660c7acd232f17b15b54d8e9f738941cb4",
      "contractAddress": null,
      "l1BaseFeeScalar": "0x44d",
      "l1BlobBaseFee": "0x1",
      "l1BlobBaseFeeScalar": "0xa118b",
      "l1Fee": "0x139fc2cd",
      "l1GasPrice": "0xb23d106",
      "l1GasUsed": "0x640"
    }
  ],
  "libraries": [],
  "pending": [],
  "returns": {},
  "timestamp": 1750886982,
  "chain": 84532,
  "commit": "404b259"
}