{
  "transactions": [
    {
      "hash": "0x37012192bc5e5529a8d823ef11e0bc2905d128ff3c6c9e3957e72bda2638634b",
      "transactionType": "CALL",
      "contractName": null,
      "contractAddress": "0x6e62ab660c7acd232f17b15b54d8e9f738941cb4",
      "function": "mint(address)",
      "arguments": [
        "0x75A6085Bbc25665B6891EA94475E6120897BA90b"
      ],
      "transaction": {
        "from": "0x4fbcb0abb61a366d9742009bb986b9c0eba9fef9",
        "to": "0x6e62ab660c7acd232f17b15b54d8e9f738941cb4",
        "gas": "0x152ac",
        "value": "0x0",
        "input": "0x6a62784200000000000000000000000075a6085bbc25665b6891ea94475e6120897ba90b",
        "nonce": "0x1d",
        "chainId": "0x14a34"
      },
      "additionalContracts": [],
      "isFixedGasLimit": false
    },
    {
      "hash": "0x4a5d91e56c4eed16b88fc22a817adf2a5455cc7598313e4dc73c7df4a45b9fa1",
      "transactionType": "CALL",
      "contractName": null,
      "contractAddress": "0x6e62ab660c7acd232f17b15b54d8e9f738941cb4",
      "function": "mint(address)",
      "arguments": [
        "0x75A6085Bbc25665B6891EA94475E6120897BA90b"
      ],
      "transaction": {
        "from": "0x4fbcb0abb61a366d9742009bb986b9c0eba9fef9",
        "to": "0x6e62ab660c7acd232f17b15b54d8e9f738941cb4",
        "gas": "0x152ac",
        "value": "0x0",
        "input": "0x6a62784200000000000000000000000075a6085bbc25665b6891ea94475e6120897ba90b",
        "nonce": "0x1e",
        "chainId": "0x14a34"
      },
      "additionalContracts": [],
      "isFixedGasLimit": false
    },
    {
      "hash": "0x028be94e6ec23df11f312ee796ebea070d6bbe93360fe0a75bad3c4248a8fd62",
      "transactionType": "CALL",
      "contractName": null,
      "contractAddress": "0x6e62ab660c7acd232f17b15b54d8e9f738941cb4",
      "function": "mint(address)",
      "arguments": [
        "0x75A6085Bbc25665B6891EA94475E6120897BA90b"
      ],
      "transaction": {
        "from": "0x4fbcb0abb61a366d9742009bb986b9c0eba9fef9",
        "to": "0x6e62ab660c7acd232f17b15b54d8e9f738941cb4",
        "gas": "0x152ac",
        "value": "0x0",
        "input": "0x6a62784200000000000000000000000075a6085bbc25665b6891ea94475e6120897ba90b",
        "nonce": "0x1f",
        "chainId": "0x14a34"
      },
      "additionalContracts": [],
      "isFixedGasLimit": false
    },
    {
      "hash": "0x2823e479e9dc8d00bdc587e67197b0b51673ea1bf58eff8b6da3976ac6412d17",
      "transactionType": "CALL",
      "contractName": null,
      "contractAddress": "0x6e62ab660c7acd232f17b15b54d8e9f738941cb4",
      "function": "mint(address)",
      "arguments": [
        "0x75A6085Bbc25665B6891EA94475E6120897BA90b"
      ],
      "transaction": {
        "from": "0x4fbcb0abb61a366d9742009bb986b9c0eba9fef9",
        "to": "0x6e62ab660c7acd232f17b15b54d8e9f738941cb4",
        "gas": "0x152ac",
        "value": "0x0",
        "input": "0x6a62784200000000000000000000000075a6085bbc25665b6891ea94475e6120897ba90b",
        "nonce": "0x20",
        "chainId": "0x14a34"
      },
      "additionalContracts": [],
      "isFixedGasLimit": false
    },
    {
      "hash": "0xeb67a5e9f39fe8cc926111a54c14b098f4d7811cc8984d81bc65d98dd261e453",
      "transactionType": "CALL",
      "contractName": null,
      "contractAddress": "0x6e62ab660c7acd232f17b15b54d8e9f738941cb4",
      "function": "mint(address)",
      "arguments": [
        "0x75A6085Bbc25665B6891EA94475E6120897BA90b"
      ],
      "transaction": {
        "from": "0x4fbcb0abb61a366d9742009bb986b9c0eba9fef9",
        "to": "0x6e62ab660c7acd232f17b15b54d8e9f738941cb4",
        "gas": "0x152ac",
        "value": "0x0",
        "input": "0x6a62784200000000000000000000000075a6085bbc25665b6891ea94475e6120897ba90b",
        "nonce": "0x21",
        "chainId": "0x14a34"
      },
      "additionalContracts": [],
      "isFixedGasLimit": false
    },
    {
      "hash": "0x17d06894246e9fe20e6723818edff8e5efa27ef9f95bb9d26b1a374923edac61",
      "transactionType": "CALL",
      "contractName": null,
      "contractAddress": "0x6e62ab660c7acd232f17b15b54d8e9f738941cb4",
      "function": "mint(address)",
      "arguments": [
        "0x75A6085Bbc25665B6891EA94475E6120897BA90b"
      ],
      "transaction": {
        "from": "0x4fbcb0abb61a366d9742009bb986b9c0eba9fef9",
        "to": "0x6e62ab660c7acd232f17b15b54d8e9f738941cb4",
        "gas": "0x152ac",
        "value": "0x0",
        "input": "0x6a62784200000000000000000000000075a6085bbc25665b6891ea94475e6120897ba90b",
        "nonce": "0x22",
        "chainId": "0x14a34"
      },
      "additionalContracts": [],
      "isFixedGasLimit": false
    }
  ],
  "receipts": [
    {
      "status": "0x1",
      "cumulativeGasUsed": "0x72e067",
      "logs": [
        {
          "address": "0x6e62ab660c7acd232f17b15b54d8e9f738941cb4",
          "topics": [
            "0xddf252ad1be2c89b69c2b068fc378daa952ba7f163c4a11628f55a4df523b3ef",
            "0x0000000000000000000000000000000000000000000000000000000000000000",
            "0x00000000000000000000000075a6085bbc25665b6891ea94475e6120897ba90b",
            "0x0000000000000000000000000000000000000000000000000000000000000010"
          ],
          "data": "0x",
          "blockHash": "0x083f41c445136a1be7be77a2e773a72801fdaec01649b93e96d78352dbcd6fcb",
          "blockNumber": "0x1a4860a",
          "blockTimestamp": "0x685c6af4",
          "transactionHash": "0x37012192bc5e5529a8d823ef11e0bc2905d128ff3c6c9e3957e72bda2638634b",
          "transactionIndex": "0x15",
          "logIndex": "0xdc",
          "removed": false
        }
      ],
      "logsBloom": "0x00000000100000000000000000000000000000000000000000000000000000010000000000000000000000000000000000000000000000000000000000000000000000000000000000000008000000000000000000000000000008000000000000000000020000000000000000000800000000000000000000000010040000000000000000000000000000000000000000000100000000000000000000000000000000000000000000000000000800000000000000000000000000000000000000000002000000000000000000000000000000000001000000000000000020000100000000000000000000000000000000000000000000000008000000000000",
      "type": "0x2",
      "transactionHash": "0x37012192bc5e5529a8d823ef11e0bc2905d128ff3c6c9e3957e72bda2638634b",
      "transactionIndex": "0x15",
      "blockHash": "0x083f41c445136a1be7be77a2e773a72801fdaec01649b93e96d78352dbcd6fcb",
      "blockNumber": "0x1a4860a",
      "gasUsed": "0xe793",
      "effectiveGasPrice": "0xf4628",
      "from": "0x4fbcb0abb61a366d9742009bb986b9c0eba9fef9",
      "to": "0x6e62ab660c7acd232f17b15b54d8e9f738941cb4",
      "contractAddress": null,
      "l1BaseFeeScalar": "0x44d",
      "l1BlobBaseFee": "0x1",
      "l1BlobBaseFeeScalar": "0xa118b",
      "l1Fee": "0xd47e3c7",
      "l1GasPrice": "0x78a001c",
      "l1GasUsed": "0x640"
    },
    {
      "status": "0x1",
      "cumulativeGasUsed": "0x73c7fa",
      "logs": [
        {
          "address": "0x6e62ab660c7acd232f17b15b54d8e9f738941cb4",
          "topics": [
            "0xddf252ad1be2c89b69c2b068fc378daa952ba7f163c4a11628f55a4df523b3ef",
            "0x0000000000000000000000000000000000000000000000000000000000000000",
            "0x00000000000000000000000075a6085bbc25665b6891ea94475e6120897ba90b",
            "0x0000000000000000000000000000000000000000000000000000000000000011"
          ],
          "data": "0x",
          "blockHash": "0x083f41c445136a1be7be77a2e773a72801fdaec01649b93e96d78352dbcd6fcb",
          "blockNumber": "0x1a4860a",
          "blockTimestamp": "0x685c6af4",
          "transactionHash": "0x4a5d91e56c4eed16b88fc22a817adf2a5455cc7598313e4dc73c7df4a45b9fa1",
          "transactionIndex": "0x16",
          "logIndex": "0xdd",
          "removed": false
        }
      ],
      "logsBloom": "0x00000000000000000000000000000000000000000000000000000000000000010000000000000000000000000000000000000000000000000000000000000000000000000000000000000008000000000000000000000000000008000000000000000000020000000000000000000800000000004000000000000010000000000000000000000000000000000000000000000000000000000000000000000000000000000000000000000000000800000000000000000000000000000400000000001002000000000000000000000000000000000001000000000000000020000100000000000000000000000000000000000000000000000008000000000000",
      "type": "0x2",
      "transactionHash": "0x4a5d91e56c4eed16b88fc22a817adf2a5455cc7598313e4dc73c7df4a45b9fa1",
      "transactionIndex": "0x16",
      "blockHash": "0x083f41c445136a1be7be77a2e773a72801fdaec01649b93e96d78352dbcd6fcb",
      "blockNumber": "0x1a4860a",
      "gasUsed": "0xe793",
      "effectiveGasPrice": "0xf4628",
      "from": "0x4fbcb0abb61a366d9742009bb986b9c0eba9fef9",
      "to": "0x6e62ab660c7acd232f17b15b54d8e9f738941cb4",
      "contractAddress": null,
      "l1BaseFeeScalar": "0x44d",
      "l1BlobBaseFee": "0x1",
      "l1BlobBaseFeeScalar": "0xa118b",
      "l1Fee": "0xd47e3c7",
      "l1GasPrice": "0x78a001c",
      "l1GasUsed": "0x640"
    },
    {
      "status": "0x1",
      "cumulativeGasUsed": "0x74af8d",
      "logs": [
        {
          "address": "0x6e62ab660c7acd232f17b15b54d8e9f738941cb4",
          "topics": [
            "0xddf252ad1be2c89b69c2b068fc378daa952ba7f163c4a11628f55a4df523b3ef",
            "0x0000000000000000000000000000000000000000000000000000000000000000",
            "0x00000000000000000000000075a6085bbc25665b6891ea94475e6120897ba90b",
            "0x0000000000000000000000000000000000000000000000000000000000000012"
          ],
          "data": "0x",
          "blockHash": "0x083f41c445136a1be7be77a2e773a72801fdaec01649b93e96d78352dbcd6fcb",
          "blockNumber": "0x1a4860a",
          "blockTimestamp": "0x685c6af4",
          "transactionHash": "0x028be94e6ec23df11f312ee796ebea070d6bbe93360fe0a75bad3c4248a8fd62",
          "transactionIndex": "0x17",
          "logIndex": "0xde",
          "removed": false
        }
      ],
      "logsBloom": "0x00000000000000000000000000000000000000000000000000000000000000010000000000000000000000000000000000000000000000000000000000000000000000000000000000000008000000000000000000000000000008000000000000000000020000000000000000000800000000000000000000000010000000000000000000000000000000000000040000000000000000000000000000000000000000000000000000000000000800000000000000000040000000000000000000000002000000000400000000000000000000000001000000000000000020000100000000000000000000000000000000000000000000000008000000000000",
      "type": "0x2",
      "transactionHash": "0x028be94e6ec23df11f312ee796ebea070d6bbe93360fe0a75bad3c4248a8fd62",
      "transactionIndex": "0x17",
      "blockHash": "0x083f41c445136a1be7be77a2e773a72801fdaec01649b93e96d78352dbcd6fcb",
      "blockNumber": "0x1a4860a",
      "gasUsed": "0xe793",
      "effectiveGasPrice": "0xf4628",
      "from": "0x4fbcb0abb61a366d9742009bb986b9c0eba9fef9",
      "to": "0x6e62ab660c7acd232f17b15b54d8e9f738941cb4",
      "contractAddress": null,
      "l1BaseFeeScalar": "0x44d",
      "l1BlobBaseFee": "0x1",
      "l1BlobBaseFeeScalar": "0xa118b",
      "l1Fee": "0xd47e3c7",
      "l1GasPrice": "0x78a001c",
      "l1GasUsed": "0x640"
    },
    {
      "status": "0x1",
      "cumulativeGasUsed": "0x759720",
      "logs": [
        {
          "address": "0x6e62ab660c7acd232f17b15b54d8e9f738941cb4",
          "topics": [
            "0xddf252ad1be2c89b69c2b068fc378daa952ba7f163c4a11628f55a4df523b3ef",
            "0x0000000000000000000000000000000000000000000000000000000000000000",
            "0x00000000000000000000000075a6085bbc25665b6891ea94475e6120897ba90b",
            "0x0000000000000000000000000000000000000000000000000000000000000013"
          ],
          "data": "0x",
          "blockHash": "0x083f41c445136a1be7be77a2e773a72801fdaec01649b93e96d78352dbcd6fcb",
          "blockNumber": "0x1a4860a",
          "blockTimestamp": "0x685c6af4",
          "transactionHash": "0x2823e479e9dc8d00bdc587e67197b0b51673ea1bf58eff8b6da3976ac6412d17",
          "transactionIndex": "0x18",
          "logIndex": "0xdf",
          "removed": false
        }
      ],
      "logsBloom": "0x20000000000000000000000000800000000000000000000000000000000000010000000040000000000000000000000000000000000000000000000000000000000000000000000000000008000000000000000000000000000008000000000000000000020000000000000000000800000000000000000000000010000000000000000000000000000000000000000000000000000000000000000000000000000000000000000000000000000800000000000000000000000000000000000000000002000000000000000000000000000000000001000000000000000020000100000000000000000000000000000000000000000000000008000000000000",
      "type": "0x2",
      "transactionHash": "0x2823e479e9dc8d00bdc587e67197b0b51673ea1bf58eff8b6da3976ac6412d17",
      "transactionIndex": "0x18",
      "blockHash": "0x083f41c445136a1be7be77a2e773a72801fdaec01649b93e96d78352dbcd6fcb",
      "blockNumber": "0x1a4860a",
      "gasUsed": "0xe793",
      "effectiveGasPrice": "0xf4628",
      "from": "0x4fbcb0abb61a366d9742009bb986b9c0eba9fef9",
      "to": "0x6e62ab660c7acd232f17b15b54d8e9f738941cb4",
      "contractAddress": null,
      "l1BaseFeeScalar": "0x44d",
      "l1BlobBaseFee": "0x1",
      "l1BlobBaseFeeScalar": "0xa118b",
      "l1Fee": "0xd47e3c7",
      "l1GasPrice": "0x78a001c",
      "l1GasUsed": "0x640"
    },
    {
      "status": "0x1",
      "cumulativeGasUsed": "0x88daf3",
      "logs": [
        {
          "address": "0x6e62ab660c7acd232f17b15b54d8e9f738941cb4",
          "topics": [
            "0xddf252ad1be2c89b69c2b068fc378daa952ba7f163c4a11628f55a4df523b3ef",
            "0x0000000000000000000000000000000000000000000000000000000000000000",
            "0x00000000000000000000000075a6085bbc25665b6891ea94475e6120897ba90b",
            "0x0000000000000000000000000000000000000000000000000000000000000014"
          ],
          "data": "0x",
          "blockHash": "0x083f41c445136a1be7be77a2e773a72801fdaec01649b93e96d78352dbcd6fcb",
          "blockNumber": "0x1a4860a",
          "blockTimestamp": "0x685c6af4",
          "transactionHash": "0xeb67a5e9f39fe8cc926111a54c14b098f4d7811cc8984d81bc65d98dd261e453",
          "transactionIndex": "0x1e",
          "logIndex": "0xfa",
          "removed": false
        }
      ],
      "logsBloom": "0x00000000000000000000000000000000000000000000000000000000000000010000000000000000000000000000000000002000000000000000000000000000000000000000000000000008000000000000000000000000000008000000000000000000020000000000000000000800000000000000000000000010000000000000000000000000000000000000000000000000000400000000000000000000000000000000000020000000000800000000000000000000000000000000000000000002000000000000000000000000000000000001000000000000000020000100000000000000000000000000000000000000000000000008000000000000",
      "type": "0x2",
      "transactionHash": "0xeb67a5e9f39fe8cc926111a54c14b098f4d7811cc8984d81bc65d98dd261e453",
      "transactionIndex": "0x1e",
      "blockHash": "0x083f41c445136a1be7be77a2e773a72801fdaec01649b93e96d78352dbcd6fcb",
      "blockNumber": "0x1a4860a",
      "gasUsed": "0xe793",
      "effectiveGasPrice": "0xf4628",
      "from": "0x4fbcb0abb61a366d9742009bb986b9c0eba9fef9",
      "to": "0x6e62ab660c7acd232f17b15b54d8e9f738941cb4",
      "contractAddress": null,
      "l1BaseFeeScalar": "0x44d",
      "l1BlobBaseFee": "0x1",
      "l1BlobBaseFeeScalar": "0xa118b",
      "l1Fee": "0xd47e3c7",
      "l1GasPrice": "0x78a001c",
      "l1GasUsed": "0x640"
    },
    {
      "status": "0x1",
      "cumulativeGasUsed": "0x89c286",
      "logs": [
        {
          "address": "0x6e62ab660c7acd232f17b15b54d8e9f738941cb4",
          "topics": [
            "0xddf252ad1be2c89b69c2b068fc378daa952ba7f163c4a11628f55a4df523b3ef",
            "0x0000000000000000000000000000000000000000000000000000000000000000",
            "0x00000000000000000000000075a6085bbc25665b6891ea94475e6120897ba90b",
            "0x0000000000000000000000000000000000000000000000000000000000000015"
          ],
          "data": "0x",
          "blockHash": "0x083f41c445136a1be7be77a2e773a72801fdaec01649b93e96d78352dbcd6fcb",
          "blockNumber": "0x1a4860a",
          "blockTimestamp": "0x685c6af4",
          "transactionHash": "0x17d06894246e9fe20e6723818edff8e5efa27ef9f95bb9d26b1a374923edac61",
          "transactionIndex": "0x1f",
          "logIndex": "0xfb",
          "removed": false
        }
      ],
      "logsBloom": "0x00000000000000000000000000000000000000000000000000000000000000010000000000000000000000000000000000000000000000000000000000000000001000000000000000000008000000000000000000000000000008000000000000000000020000000000000000000800000000000000000000000010000000000000000000000000000000000000000000000000000000000000000000000000000000000000000000000000010800000000000000000000000000000000000000000002000000000000000000000000000000000001000000000000000020002100000000000000000000000000000000000000000000000008000000000000",
      "type": "0x2",
      "transactionHash": "0x17d06894246e9fe20e6723818edff8e5efa27ef9f95bb9d26b1a374923edac61",
      "transactionIndex": "0x1f",
      "blockHash": "0x083f41c445136a1be7be77a2e773a72801fdaec01649b93e96d78352dbcd6fcb",
      "blockNumber": "0x1a4860a",
      "gasUsed": "0xe793",
      "effectiveGasPrice": "0xf4628",
      "from": "0x4fbcb0abb61a366d9742009bb986b9c0eba9fef9",
      "to": "0x6e62ab660c7acd232f17b15b54d8e9f738941cb4",
      "contractAddress": null,
      "l1BaseFeeScalar": "0x44d",
      "l1BlobBaseFee": "0x1",
      "l1BlobBaseFeeScalar": "0xa118b",
      "l1Fee": "0xd47e3c7",
      "l1GasPrice": "0x78a001c",
      "l1GasUsed": "0x640"
    }
  ],
  "libraries": [],
  "pending": [],
  "returns": {},
  "timestamp": 1750887155,
  "chain": 84532,
  "commit": "404b259"
}